:100000000C9424010C9445010C9445010C94450179
:100010000C9445010C9445010C9445010C94450148
:100020000C9445010C9445010C9445010C94450138
:100030000C9445010C9445010C9445010C94450128
:100040000C9445010C9445010C9445010C94450118
:100050000C9445010C9445010C9445010C9432021A
:100060000C9445010C9445010C9445010C944501F8
:100070000C9445010C9445010C9445010C944501E8
:100080000C9445010C9445010C9445010C944501D8
:100090000C9445010C9445010C9445010C944501C8
:1000A0000C9445010C9445010C9445010C944501B8
:1000B0000C9445010C9445010C9445010C944501A8
:1000C0000C9445010C9445010C9445010C94450198
:1000D0000C9445010C9445010C9445010C94450188
:1000E0000C9445010C9473010C9480010C949C01B8
:1000F0000C94A6010C948E010C94A5010C947A0129
:100100000C9498010C9465010C9492010C946B0171
:100110000C948A010C94A0010C94AA010C94770110
:100120000C9484010C946F0100002100240027002E
:100130002A002D00300033000101000004010701F6
:100140000A0100002200250028002B002E003100AB
:10015000340002010000050108010B01000020002D
:100160002300260029002C002F003200000100008F
:10017000030106010901050505050705080808082A
:10018000020202020A0A080804040404010101012F
:10019000010101010303030303030303040707072A
:1001A0000C0C0C0C0C0C0C0C0202020206060606CF
:1001B000060606060B0B0B0B0B0B0B0B010210209C
:1001C000200808102040102040800201020108048D
:1001D0000201010204081020408080402010080421
:1001E000020180040201804020100804020108047A
:1001F00002010102040810204080010204081020BE
:10020000408000000A0B02090C0D0E0807030401D0
:1002100000000000000000000000000000000000DE
:1002200000000000000000000000000000001211AB
:1002300010000000000000000000000000000000AE
:10024000000000000000000011241FBECFEFD1E22B
:10025000DEBFCDBF00E00CBF12E0A0E0B2E0ECE6F4
:10026000F8E000E00BBF02C007900D92A230B1078A
:10027000D9F722E0A2E0B2E001C01D92A531B20799
:10028000E1F70E947C020C9434040C94000081502D
:10029000823108F05AC0E82FF0E08827ED5AFE4F6F
:1002A0008F4F0C942C047301770165016B016F0172
:1002B000A5017A01800184018A018E0192019801D1
:1002C0009C01A501A001A601AA01809180008F7761
:1002D000809380000895809180008F7DF9CF809178
:1002E0008000877FF5CF84B58F7784BD089584B56E
:1002F0008F7DFBCF8091B0008F778093B000089501
:100300008091B0008F7DF9CF809190008F7780939E
:1003100090000895809190008F7DF9CF809190009A
:10032000877FF5CF8091A0008F778093A0000895FC
:100330008091A0008F7DF9CF8091A000877FF5CFBD
:10034000809120018F778093200108958091200172
:100350008F7DF9CF80912001877FF5CF1F93CF93B9
:10036000DF93282F30E0F901EE5FFD4F8491F90112
:10037000E454FE4FD491F901EA58FE4FC491CC23C6
:10038000A9F0162F81110E944701EC2FF0E0EE0F2B
:10039000FF1FEE5BFE4FA591B4918FB7F894EC91DF
:1003A000111108C0D095DE23DC938FBFDF91CF9170
:1003B0001F910895DE2BF8CFCF93DF9390E0FC01DF
:1003C000E454FE4F24918A589E4FFC018491882367
:1003D000D1F090E0880F991FFC01E85DFE4FA591D8
:1003E000B491FC01EE5BFE4FC591D49161110EC03A
:1003F0009FB7F8948C91E22FE0958E238C932881FF
:10040000E223E8839FBFDF91CF9108958FB7F894DF
:10041000EC91E22BEC938FBFF6CF3FB7F89480912D
:10042000070290910802A0910902B0910A0226B534
:10043000A89B05C02F3F19F00196A11DB11D3FBF1C
:10044000BA2FA92F982F8827BC01CD01620F711DEB
:10045000811D911D42E0660F771F881F991F4A95E5
:10046000D1F708951F920F920FB60F9211242F9378
:100470003F938F939F93AF93BF938091030290918B
:100480000402A0910502B09106023091020223E01D
:10049000230F2D3758F50196A11DB11D209302029F
:1004A0008093030290930402A0930502B093060286
:1004B0008091070290910802A0910902B0910A026E
:1004C0000196A11DB11D8093070290930802A0938D
:1004D0000902B0930A02BF91AF919F918F913F9112
:1004E0002F910F900FBE0F901F90189526E8230FA5
:1004F0000296A11DB11DD2CF789484B5826084BDCF
:1005000084B5816084BD85B5826085BD85B5816017
:1005100085BD80916E00816080936E001092810095
:100520008091810082608093810080918100816050
:100530008093810080918000816080938000809111
:10054000B10084608093B1008091B000816080939D
:10055000B000809191008260809391008091910021
:1005600081608093910080919000816080939000E1
:100570008091A10082608093A1008091A1008160A0
:100580008093A1008091A00081608093A000809161
:1005900021018260809321018091210181608093FB
:1005A00021018091200181608093200180917A0057
:1005B000846080937A0080917A00826080937A00D0
:1005C00080917A00816080937A0080917A008068BF
:1005D00080937A001092C1001092120210921102C0
:1005E00010921402109213021092100210920F0235
:1005F00061E080E00E94DC0161E081E00E94DC01BA
:1006000061E082E00E94DC0161E083E00E94DC01A5
:1006100061E084E00E94DC0161E085E00E94DC0191
:1006200061E086E00E94DC0161E087E00E94DC017D
:1006300060E088E00E94DC0160E089E00E94DC016B
:1006400060E08AE00E94DC0160E08BE00E94DC0157
:1006500060E08CE00E94DC0160E08DE00E94DC0143
:1006600060E08EE00E94DC0160E08FE00E94DC012F
:1006700060E080E10E94DC0160E081E10E94DC0139
:1006800060E082E10E94DC0160E083E10E94DC0125
:1006900060E084E10E94DC0160E085E10E94DC0111
:1006A00060E086E10E94DC0160E087E10E94DC01FD
:1006B00022242394312CF8E0AF2EB12CA0E08A2E16
:1006C000A0E09A2E00910F021091100210930C02DC
:1006D00000930B02309201022092000210920E024F
:1006E00010920D02C0910D02D0910E02C830D105BA
:1006F000D4F4E0900002F0900102C8018E219F2105
:1007000060E0892B09F061E08C2F0E94AE01EE0CB5
:10071000FF1CF0920102E09200022196D0930E029B
:10072000C0930D02DFCF0F5F1F4F10931002009395
:100730000F021092120210921102309201022092C6
:100740000002B0920E02A0920D02C0910D02D09153
:100750000E02C831D1050CF03CC09E013327F901CF
:10076000EE5FFD4F8491F901E454FE4F1491F901BD
:10077000EA58FE4F04910023E1F081110E944701E5
:10078000E02FF0E0EE0FFF1FE45AFE4FA591B49169
:10079000EC911E2371F08091110290911202209130
:1007A000000230910102822B932B909312028093CE
:1007B00011028091000290910102880F991F90937D
:1007C0000102809300022196D0930E02C0930D0285
:1007D000BCCF80911102909112029C01232F330F04
:1007E000330B259525952F7E309314022093130209
:1007F0002630310529F499279093100280930F0237
:100800000E940D026B017C0188EE482E83E0582E79
:10081000612C712C0E940D026C197D098E099F09B3
:10082000683E734081059105A8F321E0421A510802
:100830006108710888EEC80E83E0D81EE11CF11C27
:10084000411451046104710429F78114910409F4DD
:1008500039CF0E94000036CFEE0FFF1F881F8BBFDD
:0C0860000790F691E02D1994F894FFCF5A
:02086C00010089
:00000001FF
